{
  "_format": "hh-sol-artifact-1",
  "contractName": "Groth16Verifier",
  "sourceName": "contracts/NFTMarketplaceVerifier.sol",
  "abi": [
    {
      "inputs": [
        {
          "internalType": "uint256[2]",
          "name": "_pA",
          "type": "uint256[2]"
        },
        {
          "internalType": "uint256[2][2]",
          "name": "_pB",
          "type": "uint256[2][2]"
        },
        {
          "internalType": "uint256[2]",
          "name": "_pC",
          "type": "uint256[2]"
        },
        {
          "internalType": "uint256[4]",
          "name": "_pubSignals",
          "type": "uint256[4]"
        }
      ],
      "name": "verifyProof",
      "outputs": [
        {
          "internalType": "bool",
          "name": "",
          "type": "bool"
        }
      ],
      "stateMutability": "view",
      "type": "function"
    }
  ],
  "bytecode": "0x608060405234801561001057600080fd5b5061067a806100206000396000f3fe608060405234801561001057600080fd5b506004361061002b5760003560e01c80635fe8c13b14610030575b600080fd5b61004361003e3660046105ea565b610057565b604051901515815260200160405180910390f35b600061056a565b7f30644e72e131a029b85045b68181585d2833e84879b9709143e1f593f0000001811061008f576000805260206000f35b50565b600060405183815284602082015285604082015260408160608360076107d05a03fa9150816100c5576000805260206000f35b825160408201526020830151606082015260408360808360066107d05a03fa915050806100f6576000805260206000f35b5050505050565b7f15af58492f568e9ad206f3ba49ec353c2244bd23d56512d83a82b1cbc676d11d85527f261e5fd1caa8198e4037a714b0c4049ba166bf44531804940d88b4a16de4452860208601526000608086018661019a87357f096ceabce89debd74320b3d9cdf980e4db1f26011328f3ab4dc31cda22434f737f110a117fc653602d632f4519479bd4cec6d6b8dcd27d9910664c3c07ac5f8b7684610092565b6101ea60208801357f13afcbae0c2f7d7c14b4368b9d07ef3f8e99d8220f56d75e89c3cc1c42de795a7f1109283a3318d7ce0de43fcff98f7efd1c568344b92f094c9953fd5c5a9804c584610092565b61023a60408801357f107abad3d5e8ca61438b0f7ea55a86799acbea5013cea548450264d059de487d7f10bef9f31ae68a42fad34f3a8b47849170a0dcd2a44b544d80949720ad45250184610092565b61028a60608801357f2ed0e4e7c289899d3ac043199670bea90f74962eb2a39407ab3ec9d9db334a7a7f07e1d85b88557912ee561c2a03b514c01adaec862ecd4b1a4d4f564e5a9788f584610092565b50823581527f30644e72e131a029b85045b68181585d97816a916871ca8d3c208c16d87cfd4760208401357f30644e72e131a029b85045b68181585d97816a916871ca8d3c208c16d87cfd4703066020820152833560408201526020840135606082015260408401356080820152606084013560a08201527f2d4d9aa7e302d9df41749d5507949d05dbea33fbb16c643b22f599a2be6df2e260c08201527f14bedd503c37ceb061d8ec60209fe345ce89830a19230301f076caff004d192660e08201527f0967032fcbf776d1afc985f88877f182d38480a653f2decaa9794cbc3bf3060c6101008201527f0e187847ad4c798374d0d6732bf501847dd68bc0e071241e0213bc7fc13db7ab6101208201527f304cfbd1e08a704a99f5e847d93f8c3caafddec46b7a0d379da69a4d112346a76101408201527f1739c1b1a457a8c7313123d24d2f9192f896b7c63eea05a9d57f06547ad0cec8610160820152600087015161018082015260206000018701516101a08201527f198e9393920d483a7260bfb731fb5d25f1aa493335a9e71297e485b7aef312c26101c08201527f1800deef121f1e76426a00665e5c4479674322d4f75edadd46debd5cd992f6ed6101e08201527f090689d0585ff075ec9e99ad690c3395bc4b313370b38ef355acdadcd122975b6102008201527f12c85ea5db8c6deb4aab71808dcb408fe3d1e7690c43d37b4ce6cc0166fa7daa610220820152843561024082015260208501356102608201527f2fe78416676a7056498f2326ff9aa9e7055fe789c93c97e55ac63b97c39a657f6102808201527f2fcf89136af4466e46dd5f158961bbe9f7f485bd9d2ca0581c9faca1d95ba9d86102a08201527f27e0a1e4c189706b5eef563bcd5063f6635b5290ca0de57da334a279f036b9206102c08201527f02ac7bfaf184a4a38e1ed505c6f2cf612eb0ad8c2fecfc019babe5c446b101746102e08201526020816103008360086107d05a03fa9051169695505050505050565b6040516103808101604052610582600084013561005e565b61058f602084013561005e565b61059c604084013561005e565b6105a9606084013561005e565b6105b6818486888a6100fd565b90508060005260206000f35b80604081018310156105d357600080fd5b92915050565b80608081018310156105d357600080fd5b600080600080610180858703121561060157600080fd5b61060b86866105c2565b935061061a86604087016105d9565b92506106298660c087016105c2565b91506106398661010087016105d9565b90509295919450925056fea26469706673582212208d2519f35ae3d991de689988249c0a0f37e69fd44ab51652744fdb8768c974d364736f6c63430008110033",
  "linkReferences": {},
  "deployedLinkReferences": {}
}