{
  "_format": "hh-sol-artifact-1",
  "contractName": "NFTMarketplace",
  "sourceName": "contracts/NFTMarketplace.sol",
  "abi": [
    {
      "inputs": [
        {
          "internalType": "address",
          "name": "_verifier",
          "type": "address"
        }
      ],
      "stateMutability": "nonpayable",
      "type": "constructor"
    },
    {
      "anonymous": false,
      "inputs": [
        {
          "indexed": false,
          "internalType": "uint256",
          "name": "listingId",
          "type": "uint256"
        },
        {
          "indexed": false,
          "internalType": "address",
          "name": "nftContract",
          "type": "address"
        },
        {
          "indexed": false,
          "internalType": "uint256",
          "name": "tokenId",
          "type": "uint256"
        },
        {
          "indexed": false,
          "internalType": "uint256",
          "name": "price",
          "type": "uint256"
        }
      ],
      "name": "Listed",
      "type": "event"
    },
    {
      "anonymous": false,
      "inputs": [
        {
          "indexed": false,
          "internalType": "uint256",
          "name": "listingId",
          "type": "uint256"
        }
      ],
      "name": "ListingCancelled",
      "type": "event"
    },
    {
      "anonymous": false,
      "inputs": [
        {
          "indexed": false,
          "internalType": "uint256",
          "name": "listingId",
          "type": "uint256"
        },
        {
          "indexed": false,
          "internalType": "address",
          "name": "buyer",
          "type": "address"
        },
        {
          "indexed": false,
          "internalType": "uint256",
          "name": "price",
          "type": "uint256"
        }
      ],
      "name": "Sale",
      "type": "event"
    },
    {
      "inputs": [
        {
          "internalType": "uint256",
          "name": "listingId",
          "type": "uint256"
        }
      ],
      "name": "cancelListing",
      "outputs": [],
      "stateMutability": "nonpayable",
      "type": "function"
    },
    {
      "inputs": [
        {
          "internalType": "address",
          "name": "nftContract",
          "type": "address"
        },
        {
          "internalType": "uint256",
          "name": "tokenId",
          "type": "uint256"
        },
        {
          "internalType": "uint256",
          "name": "price",
          "type": "uint256"
        }
      ],
      "name": "createListing",
      "outputs": [],
      "stateMutability": "nonpayable",
      "type": "function"
    },
    {
      "inputs": [
        {
          "internalType": "uint256",
          "name": "",
          "type": "uint256"
        }
      ],
      "name": "listings",
      "outputs": [
        {
          "internalType": "uint256",
          "name": "listingId",
          "type": "uint256"
        },
        {
          "internalType": "address",
          "name": "nftContract",
          "type": "address"
        },
        {
          "internalType": "uint256",
          "name": "tokenId",
          "type": "uint256"
        },
        {
          "internalType": "address payable",
          "name": "seller",
          "type": "address"
        },
        {
          "internalType": "uint256",
          "name": "price",
          "type": "uint256"
        },
        {
          "internalType": "bool",
          "name": "active",
          "type": "bool"
        }
      ],
      "stateMutability": "view",
      "type": "function"
    },
    {
      "inputs": [
        {
          "internalType": "uint256",
          "name": "listingId",
          "type": "uint256"
        },
        {
          "internalType": "bytes",
          "name": "proof",
          "type": "bytes"
        },
        {
          "internalType": "uint256[4]",
          "name": "inputs",
          "type": "uint256[4]"
        }
      ],
      "name": "purchaseWithProof",
      "outputs": [],
      "stateMutability": "payable",
      "type": "function"
    },
    {
      "inputs": [],
      "name": "verifier",
      "outputs": [
        {
          "internalType": "contract IVerifier",
          "name": "",
          "type": "address"
        }
      ],
      "stateMutability": "view",
      "type": "function"
    }
  ],
  "bytecode": "0x608060405234801561001057600080fd5b50604051610ace380380610ace83398101604081905261002f91610059565b6001600055600280546001600160a01b0319166001600160a01b0392909216919091179055610089565b60006020828403121561006b57600080fd5b81516001600160a01b038116811461008257600080fd5b9392505050565b610a36806100986000396000f3fe60806040526004361061004a5760003560e01c806324780c561461004f5780632b7ac3f314610071578063305a67a8146100ae578063884ad3eb146100ce578063de74e57b146100e1575b600080fd5b34801561005b57600080fd5b5061006f61006a366004610866565b61017e565b005b34801561007d57600080fd5b50600254610091906001600160a01b031681565b6040516001600160a01b0390911681526020015b60405180910390f35b3480156100ba57600080fd5b5061006f6100c936600461089b565b61042b565b61006f6100dc3660046108b4565b6105b8565b3480156100ed57600080fd5b506101436100fc36600461089b565b600360208190526000918252604090912080546001820154600283015493830154600484015460059094015492946001600160a01b03928316949093929091169160ff1686565b604080519687526001600160a01b039586166020880152860193909352921660608401526080830191909152151560a082015260c0016100a5565b6002600054036101a95760405162461bcd60e51b81526004016101a090610948565b60405180910390fd5b6002600055806101fb5760405162461bcd60e51b815260206004820152601c60248201527f5072696365206d7573742062652067726561746572207468616e20300000000060448201526064016101a0565b6040516331a9108f60e11b81526004810183905233906001600160a01b03851690636352211e90602401602060405180830381865afa158015610242573d6000803e3d6000fd5b505050506040513d601f19601f82011682018060405250810190610266919061097f565b6001600160a01b0316146102ae5760405162461bcd60e51b815260206004820152600f60248201526e2737ba103a37b5b2b71037bbb732b960891b60448201526064016101a0565b6102bc600180546001019055565b60006102c760015490565b6040805160c0810182528281526001600160a01b0387811660208084018281528486018a81523360608701818152608088018c8152600160a08a0181815260008d81526003988990528c90209a518b559551908a0180546001600160a01b0319908116928b16929092179055935160028a01559051948801805490931694909616939093179055925160048086019190915592516005909401805460ff19169415159490941790935592516323b872dd60e01b81529081019190915230602482015260448101869052919250906323b872dd90606401600060405180830381600087803b1580156103b757600080fd5b505af11580156103cb573d6000803e3d6000fd5b5050604080518481526001600160a01b0388166020820152908101869052606081018590527f98868c46d49b200d82c273c9f28d73265826ca6567690262736450563dfff64c9250608001905060405180910390a1505060016000555050565b60026000540361044d5760405162461bcd60e51b81526004016101a090610948565b60026000908155818152600360208190526040909120908101546001600160a01b031633146104af5760405162461bcd60e51b815260206004820152600e60248201526d2737ba103a34329039b2b63632b960911b60448201526064016101a0565b600581015460ff166104f85760405162461bcd60e51b81526020600482015260126024820152714c697374696e67206e6f742061637469766560701b60448201526064016101a0565b60058101805460ff19169055600181015460028201546040516323b872dd60e01b815230600482015233602482015260448101919091526001600160a01b03909116906323b872dd90606401600060405180830381600087803b15801561055e57600080fd5b505af1158015610572573d6000803e3d6000fd5b505050507f411aee90354c51b1b04cd563fcab2617142a9d50da19232d888547c8a1b7fd8a826040516105a791815260200190565b60405180910390a150506001600055565b6002600054036105da5760405162461bcd60e51b81526004016101a090610948565b60026000908155848152600360205260409020600581015460ff166106365760405162461bcd60e51b81526020600482015260126024820152714c697374696e67206e6f742061637469766560701b60448201526064016101a0565b806004015434146106895760405162461bcd60e51b815260206004820152601860248201527f496e636f7272656374207061796d656e7420616d6f756e74000000000000000060448201526064016101a0565b6002546040516335f8315960e11b81526001600160a01b0390911690636bf062b2906106bd908790879087906004016109a3565b602060405180830381865afa1580156106da573d6000803e3d6000fd5b505050506040513d601f19601f820116820180604052508101906106fe91906109de565b61074a5760405162461bcd60e51b815260206004820152601c60248201527f496e76616c6964207a65726f2d6b6e6f776c656467652070726f6f660000000060448201526064016101a0565b60058101805460ff19169055600181015460028201546040516323b872dd60e01b815230600482015233602482015260448101919091526001600160a01b03909116906323b872dd90606401600060405180830381600087803b1580156107b057600080fd5b505af11580156107c4573d6000803e3d6000fd5b50505060038201546040516001600160a01b0390911691503480156108fc02916000818181858888f19350505050158015610803573d6000803e3d6000fd5b5060408051868152336020820152348183015290517fc0e076a004e59b819c1099b4799386d7feaa928662e5f3f95af4db1a1502520d9181900360600190a150506001600055505050565b6001600160a01b038116811461086357600080fd5b50565b60008060006060848603121561087b57600080fd5b83356108868161084e565b95602085013595506040909401359392505050565b6000602082840312156108ad57600080fd5b5035919050565b60008060008060c085870312156108ca57600080fd5b84359350602085013567ffffffffffffffff808211156108e957600080fd5b818701915087601f8301126108fd57600080fd5b81358181111561090c57600080fd5b88602082850101111561091e57600080fd5b6020830195508094505050508560c08601111561093a57600080fd5b509194909350909160400190565b6020808252601f908201527f5265656e7472616e637947756172643a207265656e7472616e742063616c6c00604082015260600190565b60006020828403121561099157600080fd5b815161099c8161084e565b9392505050565b60a081528260a0820152828460c0830137600060c08483010152600060c0601f19601f86011683010190506080836020840137949350505050565b6000602082840312156109f057600080fd5b8151801515811461099c57600080fdfea2646970667358221220eb5b5735eb94ea62b5ac49cdd46161f3250499c54bbf13c7537f442a5532ded064736f6c63430008110033",
  "linkReferences": {},
  "deployedLinkReferences": {}
}